:100000000C942A000C9401010C943C000C943C00CC
:100010000C943C000C943C000C943C000C943C0070
:100020000C943C000C943C000C943C000C94030396
:100030000C943C000C943C000C943C000C943C0050
:100040000C943C000C943C000C943C000C943C0040
:100050000C943C0011241FBECFE5D8E0DEBFCDBF1D
:1000600020E0A0E6B0E001C01D92A536B207E1F79E
:100070000E946F010C944F030C94000060E084E434
:100080000E94FC0060E081E40E945C0161E081E488
:100090000E945C0162E081E40E945C0160E082E415
:1000A0000E945C0161E082E40E945C0162E082E403
:1000B0000E945C0160E083E40E945C0161E083E4F3
:1000C0000E945C010E94E2020E94D5020E94C702C7
:1000D0008BE691E00E94DA0280E008958091610051
:1000E000811120C060E083E40E94610161E083E44B
:1000F0000E94660160E081E40E94610162E082E4A6
:100100000E9461010E94ED028091610090E00196E1
:1001100083709078992324F401978C6F9F6F0196D8
:1001200080936100809161008130C1F40E94ED02F2
:1001300061E081E40E94660161E082E40E94660160
:100140008091610090E0019683709078992324F467
:1001500001978C6F9F6F0196809361008091610081
:10016000823021F580916000882341F060E082E4D4
:100170000E94610162E082E40E94660160E081E425
:100180000E94660162E081E40E9461010E94ED022A
:100190008091610090E0019683709078992324F417
:1001A00001978C6F9F6F0196809361000E94ED0212
:1001B00060E082E40E94660161E081E40E946601E1
:1001C00061E082E40E94660180916100833091F4D5
:1001D00090E0019683709078992324F401978C6FB6
:1001E0009F6F01968093610062E081E40E94660146
:1001F0001092600080E0089540E00E94740181E068
:1002000008951F920F920FB60F9211242F933F93D0
:100210004F935F936F937F938F939F93AF93BF930E
:10022000EF93FF9380916000811135C060E083E41B
:100230000E94660161E083E40E9461018091610097
:10024000811104C084E18093640022C0813059F49C
:1002500061E081E40E94660161E082E40E9466013F
:100260000E94FC0215C0823059F40E94FC0262E038
:1002700082E40E94660160E082E40E94610108C09D
:10028000833031F484E18093640081E080936100E5
:1002900081E080936000FF91EF91BF91AF919F91BA
:1002A0008F917F916F915F914F913F912F910F901F
:1002B0000FBE0F901F90189541E00E94740180E0DE
:1002C000089541E00E94FF0181E0089540E00E940E
:1002D000FF0181E008950E948A0281E008950E9452
:1002E0003E000E946E00FDCF823441F118F481344B
:1002F00041F07BC0833409F43EC0843409F458C013
:1003000074C0413061F42AB381E090E002C0880FEC
:10031000991F6A95E2F7822B8ABB80E0089541110C
:1003200066C02AB381E090E002C0880F991F6A95E9
:10033000E2F7809582238ABB80E00895413061F422
:1003400027B381E090E002C0880F991F6A95E2F719
:10035000822B87BB80E0089541114BC027B381E019
:1003600090E002C0880F991F6A95E2F7809582237A
:1003700087BB80E00895413061F424B381E090E0D0
:1003800002C0880F991F6A95E2F7822B84BB80E038
:100390000895411130C024B381E090E002C0880F7D
:1003A000991F6A95E2F78095822384BB80E00895C7
:1003B000413061F421B381E090E002C0880F991FC1
:1003C0006A95E2F7822B81BB80E00895411115C048
:1003D00021B381E090E002C0880F991F6A95E2F78F
:1003E0008095822381BB80E0089581E0089580E0BC
:1003F000089580E0089580E0089580E008958234B3
:1004000041F118F4813441F07BC0833409F43EC0DB
:10041000843409F458C074C0413061F42BB381E0D6
:1004200090E002C0880F991F6A95E2F7822B8BBB80
:1004300080E00895411166C02BB381E090E002C0D6
:10044000880F991F6A95E2F7809582238BBB80E025
:100450000895413061F428B381E090E002C0880F34
:10046000991F6A95E2F7822B88BB80E008954111BD
:100470004BC028B381E090E002C0880F991F6A95B5
:10048000E2F78095822388BB80E00895413061F4D3
:1004900025B381E090E002C0880F991F6A95E2F7CA
:1004A000822B85BB80E00895411130C025B381E0E7
:1004B00090E002C0880F991F6A95E2F78095822329
:1004C00085BB80E00895413061F422B381E090E083
:1004D00002C0880F991F6A95E2F7822B82BB80E0E9
:1004E0000895411115C022B381E090E002C0880F49
:1004F000991F6A95E2F78095822382BB80E0089578
:1005000081E0089580E0089580E0089580E00895F6
:1005100080E008958234A9F018F4813431F035C0B8
:100520008334D9F0843429F130C02BB381E090E0DA
:1005300002C0880F991F6A95E2F782278BBB80E083
:10054000089528B381E090E002C0880F991F6A9552
:10055000E2F7822788BB80E0089525B381E090E030
:1005600002C0880F991F6A95E2F7822785BB80E059
:10057000089522B381E090E002C0880F991F6A9528
:10058000E2F7822782BB80E0089581E0089585B775
:100590008E7F85BF85B7826085BF8BB780648BBF38
:1005A0008FB780688FBF80E0089589B7816089BF69
:1005B00080E008959093630080936200089582BF65
:1005C00081E0089583B7877F83BF83B78F7B83BF25
:1005D0008BE00E94DF0281E0089583B7816083BFD2
:1005E00083B7846083BF809164008431E0F313BEDD
:1005F0001092640080E008958BE00E94DF02109268
:10060000640080E008951F920F920FB60F9211249C
:100610002F933F934F935F936F937F938F939F930A
:10062000AF93BF93EF93FF938BE00E94DF02809123
:1006300064008F5F8093640080916100813011F0CD
:100640008330E1F480916000811108C0E091620084
:10065000F091630061E081E4099510C0882371F096
:10066000E0916200F091630061E081E40995E0911E
:100670006200F091630061E082E40995FF91EF91DF
:10068000BF91AF919F918F917F916F915F914F91AA
:100690003F912F910F900FBE0F901F901895F894D7
:0206A000FFCF8A
:00000001FF
